{
  "transactions": [
    {
      "hash": "0xbef42031511c6e47bf650cfed758099bdf4b3af593f79be89845b025d6ce3005",
      "transactionType": "CALL",
      "contractName": null,
      "contractAddress": "0xb879acb1af6b0c5fb0158e2ceb79cd9009d61819",
      "function": "flipMood(uint256)",
      "arguments": [
        "0"
      ],
      "transaction": {
        "from": "0x1678fb9b230722a79ffca6db3b11b8c3ca18ab9e",
        "to": "0xb879acb1af6b0c5fb0158e2ceb79cd9009d61819",
        "gas": "0x106bc",
        "value": "0x0",
        "input": "0xc1a147a00000000000000000000000000000000000000000000000000000000000000000",
        "nonce": "0x55",
        "chainId": "0xaa36a7"
      },
      "additionalContracts": [],
      "isFixedGasLimit": false
    }
  ],
  "receipts": [
    {
      "status": "0x1",
      "cumulativeGasUsed": "0xd6917f",
      "logs": [],
      "logsBloom": "0x00000000000000000000000000000000000000000000000000000000000000000000000000000000000000000000000000000000000000000000000000000000000000000000000000000000000000000000000000000000000000000000000000000000000000000000000000000000000000000000000000000000000000000000000000000000000000000000000000000000000000000000000000000000000000000000000000000000000000000000000000000000000000000000000000000000000000000000000000000000000000000000000000000000000000000000000000000000000000000000000000000000000000000000000000000000",
      "type": "0x2",
      "transactionHash": "0xbef42031511c6e47bf650cfed758099bdf4b3af593f79be89845b025d6ce3005",
      "transactionIndex": "0x87",
      "blockHash": "0xfc42d128d82da9859a03b31e2fe9a28f892e9e46d6b0baa84c41be4cf2255dc2",
      "blockNumber": "0x5993f1",
      "gasUsed": "0xbe38",
      "effectiveGasPrice": "0x11e7fb81",
      "from": "0x1678fb9b230722a79ffca6db3b11b8c3ca18ab9e",
      "to": "0xb879acb1af6b0c5fb0158e2ceb79cd9009d61819",
      "contractAddress": null
    }
  ],
  "libraries": [],
  "pending": [],
  "returns": {},
  "timestamp": 1715297706,
  "chain": 11155111,
  "commit": "23c2970"
}