{
  "transactions": [
    {
      "hash": "0xeb3348bf9122a8b4535ba11bfede2099e18f38b164d33c0ff836f953c78a6ba3",
      "transactionType": "CALL",
      "contractName": null,
      "contractAddress": "0x72bf96e2550c347466c1d07e3feea6ffcd96faa2",
      "function": "mintNft(string)",
      "arguments": [
        "\"https://ipfs.io/ipfs/QmfNN5LKRtjy4p9eaQbAZMiFzWhn6dtS3u8tf2WVNJX996?filename=BasicNFTMetadata.json\""
      ],
      "transaction": {
        "from": "0x1678fb9b230722a79ffca6db3b11b8c3ca18ab9e",
        "to": "0x72bf96e2550c347466c1d07e3feea6ffcd96faa2",
        "gas": "0x4902d",
        "value": "0x0",
        "input": "0xda86f4a90000000000000000000000000000000000000000000000000000000000000020000000000000000000000000000000000000000000000000000000000000006268747470733a2f2f697066732e696f2f697066732f516d664e4e354c4b52746a7934703965615162415a4d69467a57686e3664745333753874663257564e4a583939363f66696c656e616d653d42617369634e46544d657461646174612e6a736f6e000000000000000000000000000000000000000000000000000000000000",
        "nonce": "0x50",
        "chainId": "0xaa36a7"
      },
      "additionalContracts": [],
      "isFixedGasLimit": false
    }
  ],
  "receipts": [
    {
      "status": "0x1",
      "cumulativeGasUsed": "0x43f5e6",
      "logs": [
        {
          "address": "0x72bf96e2550c347466c1d07e3feea6ffcd96faa2",
          "topics": [
            "0xddf252ad1be2c89b69c2b068fc378daa952ba7f163c4a11628f55a4df523b3ef",
            "0x0000000000000000000000000000000000000000000000000000000000000000",
            "0x0000000000000000000000001678fb9b230722a79ffca6db3b11b8c3ca18ab9e",
            "0x0000000000000000000000000000000000000000000000000000000000000000"
          ],
          "data": "0x",
          "blockHash": "0x49a01935bf56e3795182ee07b2b9909eb596366084fa483cad651e1beb52d99b",
          "blockNumber": "0x598b79",
          "transactionHash": "0xeb3348bf9122a8b4535ba11bfede2099e18f38b164d33c0ff836f953c78a6ba3",
          "transactionIndex": "0x18",
          "logIndex": "0x24",
          "removed": false
        }
      ],
      "logsBloom": "0x00000000000000000000000000000000000000000000200000000000000000000000000000000000000000000000000000000000000000000000000000000000000000000000000000000008000000000000000000000000000000000000000000000000020000000000000000000800000000010000000000000010000010000000000000000000000000000000000000000000000000000000000000000000000000000000000000000000000000000000000000000000000000000000000000000002000000000000000000000000000000000000000000002000000020000000000000000000000000000000000000000000000000022000000000000000",
      "type": "0x2",
      "transactionHash": "0xeb3348bf9122a8b4535ba11bfede2099e18f38b164d33c0ff836f953c78a6ba3",
      "transactionIndex": "0x18",
      "blockHash": "0x49a01935bf56e3795182ee07b2b9909eb596366084fa483cad651e1beb52d99b",
      "blockNumber": "0x598b79",
      "gasUsed": "0x31ec1",
      "effectiveGasPrice": "0x31abb92c6",
      "from": "0x1678fb9b230722a79ffca6db3b11b8c3ca18ab9e",
      "to": "0x72bf96e2550c347466c1d07e3feea6ffcd96faa2",
      "contractAddress": null
    }
  ],
  "libraries": [],
  "pending": [],
  "returns": {},
  "timestamp": 1715270366,
  "chain": 11155111,
  "commit": "aca0e41"
}